{"abi":[{"type":"function","name":"Q112","inputs":[],"outputs":[{"name":"","type":"uint256","internalType":"uint256"}],"stateMutability":"view"},{"type":"function","name":"RESOLUTION","inputs":[],"outputs":[{"name":"","type":"uint8","internalType":"uint8"}],"stateMutability":"view"}],"bytecode":{"object":"0x60ab6032600b8282823980515f1a607314602657634e487b7160e01b5f525f60045260245ffd5b305f52607381538281f3fe7300000000000000000000000000000000000000003014608060405260043610603c575f3560e01c80633bf7a83e146040578063552f888a14605d575b5f5ffd5b604a600160701b81565b6040519081526020015b60405180910390f35b6064607081565b60405160ff9091168152602001605456fea2646970667358221220b1e445a5db1520d8c273fd90ea9e1cb47a8c4a07efdbcfd16483c0bd6403801d64736f6c634300081c0033","linkReferences":{}},"methodIdentifiers":{"Q112()":"3bf7a83e","RESOLUTION()":"552f888a"},"id":34}